{
  "contractName": "Factory_Contract",
  "abi": [
    {
      "constant": false,
      "inputs": [],
      "name": "deployContract",
      "outputs": [
        {
          "internalType": "address",
          "name": "",
          "type": "address"
        }
      ],
      "payable": false,
      "stateMutability": "nonpayable",
      "type": "function"
    }
  ],
  "bytecode": "0x608060405234801561001057600080fd5b50610939806100206000396000f3fe608060405234801561001057600080fd5b506004361061002b5760003560e01c80636cd5c39b14610030575b600080fd5b61003861007a565b604051808273ffffffffffffffffffffffffffffffffffffffff1673ffffffffffffffffffffffffffffffffffffffff16815260200191505060405180910390f35b600060606040518060200161008e90610300565b6020820181038252601f19601f82011660405250905060004233604051602001808381526020018273ffffffffffffffffffffffffffffffffffffffff1673ffffffffffffffffffffffffffffffffffffffff1660601b81526014019250505060405160208183030381529060405280519060200120905061011260008284610156565b6000806101000a81548173ffffffffffffffffffffffffffffffffffffffff021916908373ffffffffffffffffffffffffffffffffffffffff160217905550505090565b600080844710156101cf576040517f08c379a000000000000000000000000000000000000000000000000000000000815260040180806020018281038252601d8152602001807f437265617465323a20696e73756666696369656e742062616c616e636500000081525060200191505060405180910390fd5b600083511415610247576040517f08c379a00000000000000000000000000000000000000000000000000000000081526004018080602001828103825260208152602001807f437265617465323a2062797465636f6465206c656e677468206973207a65726f81525060200191505060405180910390fd5b8383516020850187f59050600073ffffffffffffffffffffffffffffffffffffffff168173ffffffffffffffffffffffffffffffffffffffff1614156102f5576040517f08c379a00000000000000000000000000000000000000000000000000000000081526004018080602001828103825260198152602001807f437265617465323a204661696c6564206f6e206465706c6f790000000000000081525060200191505060405180910390fd5b809150509392505050565b6105f78061030e8339019056fe608060405234801561001057600080fd5b506105d7806100206000396000f3fe608060405234801561001057600080fd5b506004361061004c5760003560e01c806367b7080b146100515780636900a3ae1461009d578063ab77f71014610144578063d803911f14610190575b600080fd5b6100876004803603604081101561006757600080fd5b8101908080359060200190929190803590602001909291905050506101dc565b6040518082815260200191505060405180910390f35b6100c9600480360360208110156100b357600080fd5b81019080803590602001909291905050506101f5565b6040518080602001828103825283818151815260200191508051906020019080838360005b838110156101095780820151818401526020810190506100ee565b50505050905090810190601f1680156101365780820380516001836020036101000a031916815260200191505b509250505060405180910390f35b61017a6004803603604081101561015a57600080fd5b810190808035906020019092919080359060200190929190505050610207565b6040518082815260200191505060405180910390f35b6101c6600480360360408110156101a657600080fd5b810190808035906020019092919080359060200190929190505050610220565b6040518082815260200191505060405180910390f35b6000806101e98484610239565b90508091505092915050565b6060610200826102c1565b9050919050565b60008061021484846103f1565b90508091505092915050565b60008061022d8484610477565b90508091505092915050565b6000808284019050838110156102b7576040517f08c379a000000000000000000000000000000000000000000000000000000000815260040180806020018281038252601b8152602001807f536166654d6174683a206164646974696f6e206f766572666c6f77000000000081525060200191505060405180910390fd5b8091505092915050565b60606000821415610309576040518060400160405280600181526020017f300000000000000000000000000000000000000000000000000000000000000081525090506103ec565b600082905060005b60008214610333578080600101915050600a828161032b57fe5b049150610311565b6060816040519080825280601f01601f1916602001820160405280156103685781602001600182028038833980820191505090505b50905060006001830390508593505b600084146103e457600a848161038957fe5b0660300160f81b828280600190039350815181106103a357fe5b60200101907effffffffffffffffffffffffffffffffffffffffffffffffffffffffffffff1916908160001a905350600a84816103dc57fe5b049350610377565b819450505050505b919050565b6000808314156104045760009050610471565b600082840290508284828161041557fe5b041461046c576040517f08c379a00000000000000000000000000000000000000000000000000000000081526004018080602001828103825260218152602001806105826021913960400191505060405180910390fd5b809150505b92915050565b60006104b983836040518060400160405280601e81526020017f536166654d6174683a207375627472616374696f6e206f766572666c6f7700008152506104c1565b905092915050565b600083831115829061056e576040517f08c379a00000000000000000000000000000000000000000000000000000000081526004018080602001828103825283818151815260200191508051906020019080838360005b83811015610533578082015181840152602081019050610518565b50505050905090810190601f1680156105605780820380516001836020036101000a031916815260200191505b509250505060405180910390fd5b506000838503905080915050939250505056fe536166654d6174683a206d756c7469706c69636174696f6e206f766572666c6f77a265627a7a72315820eb1b07905d9cb445feadcad7ebf1f67e0ea032305b8ee9705aad474dabd8966664736f6c63430005100032a265627a7a72315820ca5917604d5af86093a07404e9eea5f41074ec3779e788ab84c5fee5866ec27c64736f6c63430005100032",
  "source": "pragma solidity ^0.5.12;\n\nimport \"./Create2.sol\";\nimport \"./Sol_libs.sol\";\n\ncontract Factory_Contract{\n\naddress contractAddress;\n\nfunction deployContract() public returns(address){\nbytes memory bytecode = type(Sol_Libs).creationCode;\nbytes32 salt = keccak256(abi.encodePacked(block.timestamp, msg.sender));\n\ncontractAddress = Create2.deploy(0, salt, bytecode);\n\n}\n\n}",
  "sourcePath": "/home/danial/Desktop/XORD_Internship/solidity_libraries/contracts/Factory_contract.sol",
  "compiler": {
    "name": "solc",
    "version": "0.5.16+commit.9c3226ce.Emscripten.clang"
  },
  "schemaVersion": "3.2.3",
  "updatedAt": "2020-08-22T11:35:29.330Z",
  "devdoc": {
    "methods": {}
  },
  "userdoc": {
    "methods": {}
  }
}